:020000040800F2
:1000000000000120754400083F2B0008412B000828
:10001000432B0008452B0008472B00080000000078
:10002000000000000000000000000000492B000854
:100030004B2B0008000000004D2B00084F2B000840
:10004000C5440008C5440008592B0008C5440008F1
:10005000C5440008C5440008C5440008C54400085C
:10006000C5440008C5440008C54400086D2B0008BD
:100070007D2B0008C54400088D2B00089D2B00082F
:10008000AD2B0008BD2B0008C5440008C54400087E
:1000900000000000C5440008C5440008C54400082D
:1000A000C5440008C5440008C5440008C54400080C
:1000B000C5440008C5440008C5440008C5440008FC
:1000C000C5440008C5440008C5440008C5440008EC
:1000D000CD2B0008DD2B0008ED2B0008C5440008DF
:1000E000C5440008692B0008FD2B0008C544000822
:1000F000C54400080000000000000000C5440008DE
:10010000C5440008C54400080D2C0008C54400087B
:10011000C5440008C5440008C5440008C54400089B
:10012000C5440008C5440008C5440008C54400088B
:08013000C5440008C5440008A5
:1001400010B5054C237833B9044B13B10448AFF311
:1001500000800123237010BD400700200000000034
:1001600014DA010808B5034B1BB103490348AFF388
:10017000008008BD000000004407002014DA0108D8
:1001800010F8012B11F8013B012A28BF9A42F7D041
:10019000D01A7047000000000000000000000000BE
:1001A00001F0FF01102A2BDB10F0070F08D010F828
:1001B000013B013A8B422DD010F0070F42B3F6D12C
:1001C000F0B441EA012141EA014122F007047FF045
:1001D00000070023F0E80256083C85EA010586EA9C
:1001E000010685FA47F5A3FA87F586FA47F6A5FAD8
:1001F00087F68EB9EED1F0BC01F0FF0102F00702E4
:1002000032B110F8013B013A83EA010313B1F8D18E
:100210000020704701387047002D06BF354603386F
:10022000073815F0010F07D1013015F4807F02BFA8
:10023000013015F4C03F0130F0BC0138704700BFF9
:10024000034613F8012B002AFBD1181A0138704716
:1002500081F0004102E000BF83F0004330B54FEA77
:1002600041044FEA430594EA050F08BF90EA020FE4
:100270001FBF54EA000C55EA020C7FEA645C7FEA77
:10028000655C00F0E2804FEA5454D4EB5555B8BF9A
:100290006D420CDD2C4480EA020281EA030382EA0B
:1002A000000083EA010180EA020281EA0303362D9D
:1002B00088BF30BD11F0004F4FEA01314FF4801C70
:1002C0004CEA113102D0404261EB410113F0004F82
:1002D0004FEA03334CEA133302D0524263EB430339
:1002E00094EA050F00F0A780A4F10104D5F1200ED7
:1002F0000DDB02FA0EFC22FA05F2801841F1000132
:1003000003FA0EF2801843FA05F359410EE0A5F105
:1003100020050EF1200E012A03FA0EFC28BF4CF036
:10032000020C43FA05F3C01851EBE37101F00045EC
:1003300007D54FF0000EDCF1000C7EEB00006EEBF9
:100340000101B1F5801F1BD3B1F5001F0CD3490883
:100350005FEA30004FEA3C0C04F101044FEA4452DA
:1003600012F5800F80F09A80BCF1004F08BF5FEA61
:10037000500C50F1000041EB045141EA050130BD41
:100380005FEA4C0C404141EB0101013C28BFB1F553
:10039000801FE9D291F0000F04BF01460020B1FA9E
:1003A00081F308BF2033A3F10B03B3F120020CDA71
:1003B0000C3208DD02F1140CC2F10C0201FA0CF04F
:1003C00021FA02F10CE002F11402D8BFC2F1200CB4
:1003D00001FA02F120FA0CFCDCBF41EA0C0190406A
:1003E000E41AA2BF01EB0451294330BD6FEA0404B3
:1003F0001F3C1CDA0C340EDC04F11404C4F120029E
:1004000020FA04F001FA02F340EA030021FA04F3AF
:1004100045EA030130BDC4F10C04C4F1200220FA06
:1004200002F001FA04F340EA0300294630BD21FA44
:1004300004F0294630BD94F0000F83F4801306BF0A
:1004400081F480110134013D4EE77FEA645C18BFFE
:100450007FEA655C29D094EA050F08BF90EA020F95
:1004600005D054EA000C04BF1946104630BD91EA8D
:10047000030F1EBF0021002030BD5FEA545C05D190
:100480004000494128BF41F0004130BD14F58004CF
:100490003CBF01F5801130BD01F0004545F0FE4143
:1004A00041F470014FF0000030BD7FEA645C1ABF78
:1004B000194610467FEA655C1CBF0B46024650EAAF
:1004C000013406BF52EA033591EA030F41F40021DB
:1004D00030BD00BF90F0000F04BF0021704730B561
:1004E0004FF4806404F132044FF000054FF0000136
:1004F00050E700BF90F0000F04BF0021704730B5F7
:100500004FF4806404F1320410F0004548BF4042CB
:100510004FF000013EE700BF42004FEAE2014FEA20
:1005200031014FEA02701FBF12F07F4393F07F4FFB
:1005300081F06051704732F07F4208BF704793F0FE
:100540007F4F04BF41F40021704730B54FF4607411
:1005500001F0004521F000411CE700BF50EA010214
:1005600008BF704730B54FF000050AE050EA0102BD
:1005700008BF704730B511F0004502D5404261EB2D
:1005800041014FF4806404F132045FEA915C3FF46E
:10059000D8AE4FF003025FEADC0C18BF03325FEA0B
:1005A000DC0C18BF033202EBDC02C2F1200300FABC
:1005B00003FC20FA02F001FA03FE40EA0E0021FAE1
:1005C00002F11444BDE600BF70B54FF0FF0C4CF4CF
:1005D000E06C1CEA11541DBF1CEA135594EA0C0F81
:1005E00095EA0C0F00F0DEF82C4481EA030621EABC
:1005F0004C5123EA4C5350EA013518BF52EA0335F7
:1006000041F4801143F4801338D0A0FB02CE4FF0A8
:100610000005E1FB02E506F00042E0FB03E54FF0D8
:100620000006E1FB03569CF0000F18BF4EF0010ED0
:10063000A4F1FF04B6F5007F64F5407404D25FEACC
:100640004E0E6D4146EB060642EAC62141EA55517F
:100650004FEAC52040EA5E504FEACE2EB4F1FD0CC1
:1006600088BFBCF5E06F1ED8BEF1004F08BF5FEA3F
:10067000500E50F1000041EB045170BD06F00046F1
:1006800046EA010140EA020081EA0301B4EB5C049E
:10069000C2BFD4EB0C0541EA045170BD41F4801196
:1006A0004FF0000E013C00F3AB8014F1360FDEBFBB
:1006B000002001F0004170BDC4F10004203C35DA97
:1006C0000C341BDC04F11404C4F1200500FA05F31A
:1006D00020FA04F001FA05F240EA020001F00042BB
:1006E00021F0004110EBD37021FA04F642EB060131
:1006F0005EEA430E08BF20EAD37070BDC4F10C045B
:10070000C4F1200500FA04F320FA05F001FA04F21E
:1007100040EA020001F0004110EBD37041F100010A
:100720005EEA430E08BF20EAD37070BDC4F1200515
:1007300000FA05F24EEA020E20FA04F301FA05F27D
:1007400043EA020321FA04F001F0004121FA04F225
:1007500020EA020000EBD3705EEA430E08BF20EAF5
:10076000D37070BD94F0000F0FD101F0004640002F
:1007700041EB010111F4801F08BF013CF7D041EAB1
:10078000060195F0000F18BF704703F000465200B5
:1007900043EB030313F4801F08BF013DF7D043EA86
:1007A0000603704794EA0C0F0CEA135518BF95EA3C
:1007B0000C0F0CD050EA410618BF52EA4306D1D1C3
:1007C00081EA030101F000414FF0000070BD50EAE2
:1007D000410606BF1046194652EA430619D094EA6C
:1007E0000C0F02D150EA013613D195EA0C0F05D156
:1007F00052EA03361CBF104619460AD181EA0301AA
:1008000001F0004141F0FE4141F470014FF0000061
:1008100070BD41F0FE4141F4780170BD70B54FF0FC
:10082000FF0C4CF4E06C1CEA11541DBF1CEA13557C
:1008300094EA0C0F95EA0C0F00F0A7F8A4EB05045E
:1008400081EA030E52EA03354FEA013100F0888055
:100850004FEA03334FF0805545EA131343EA12631E
:100860004FEA022245EA111545EA10654FEA0026D3
:100870000EF000419D4208BF964244F1FD0404F58C
:10088000407402D25B084FEA3202B61A65EB0305E8
:100890005B084FEA32024FF480104FF4002CB6EBA5
:1008A000020E75EB030E22BFB61A754640EA0C0025
:1008B0005B084FEA3202B6EB020E75EB030E22BF65
:1008C000B61A754640EA5C005B084FEA3202B6EBA6
:1008D000020E75EB030E22BFB61A754640EA9C0065
:1008E0005B084FEA3202B6EB020E75EB030E22BF35
:1008F000B61A754640EADC0055EA060E18D04FEAF3
:10090000051545EA16754FEA06164FEAC30343EA92
:1009100052734FEAC2025FEA1C1CC0D111F4801F5F
:100920000BD141EA00014FF000004FF0004CB6E758
:1009300011F4801F04BF01430020B4F1FD0C88BFF7
:10094000BCF5E06F3FF6AFAEB5EB030C04BFB6EB02
:10095000020C5FEA500C50F1000041EB045170BDF5
:100960000EF0004E4EEA113114EB5C04C2BFD4EB22
:100970000C0541EA045170BD41F480114FF0000EA6
:10098000013C90E645EA060E8DE60CEA135594EA22
:100990000C0F08BF95EA0C0F3FF43BAF94EA0C0F25
:1009A0000AD150EA01347FF434AF95EA0C0F7FF49A
:1009B00025AF104619462CE795EA0C0F06D152EAEE
:1009C00003353FF4FDAE1046194622E750EA4106D2
:1009D00018BF52EA43067FF4C5AE50EA41047FF4E3
:1009E0000DAF52EA43057FF4EBAE12E74FF0FF3C48
:1009F00006E000BF4FF0010C02E000BF4FF0010C19
:100A00004DF804CD4FEA410C7FEA6C5C4FEA430C91
:100A100018BF7FEA6C5C1BD001B050EA410C0CBFE0
:100A200052EA430C91EA030F02BF90EA020F002042
:100A3000704710F1000F91EA030F58BF994208BFA9
:100A400090422CBFD8176FEAE37040F00100704766
:100A50004FEA410C7FEA6C5C02D150EA013C07D1BD
:100A60004FEA430C7FEA6C5CD6D152EA033CD3D008
:100A70005DF8040B704700BF8446104662468C4602
:100A80001946634600E000BF01B5FFF7B7FF002835
:100A900048BF10F1000F01BD4DF808EDFFF7F4FF5E
:100AA0000CBF012000205DF808FB00BF4DF808EDE9
:100AB000FFF7EAFF34BF012000205DF808FB00BF0C
:100AC0004DF808EDFFF7E0FF94BF012000205DF82E
:100AD00008FB00BF4DF808EDFFF7CEFF94BF0120E3
:100AE00000205DF808FB00BF4DF808EDFFF7C4FFDC
:100AF00034BF012000205DF808FB00BF4FEA410C25
:100B00007FEA6C5C02D150EA013C0AD14FEA430C07
:100B10007FEA6C5C02D152EA033C02D14FF0000044
:100B200070474FF0010070474FEA410212F5001282
:100B300015D211D56FF47873B3EB625212D94FEA24
:100B4000C12343F0004343EA505311F0004F23FA0E
:100B500002F018BF404270474FF00000704750EA63
:100B6000013005D111F0004008BF6FF00040704720
:100B70004FF00000704700BF4A0011D212F500127A
:100B800011D20DD56FF47873B3EB62520ED44FEAE5
:100B9000C12343F0004343EA505323FA02F0704765
:100BA0004FF00000704750EA013002D14FF0FF30A3
:100BB00070474FF0000070474FEA4102B2F1E04346
:100BC00024BFB3F5001CDCF1FE5C0DD901F0004C34
:100BD0004FEAC0024CEA5070B2F1004F40EB830084
:100BE00008BF20F00100704711F0804F21D113F1B0
:100BF0003872BCBF01F00040704741F480114FEAE9
:100C00005252C2F11802C2F1200C10FA0CF320FA71
:100C100002F018BF40F001004FEAC1234FEAD3238E
:100C200003FA0CFC40EA0C0023FA02F34FEA4303F8
:100C3000CCE77FEA625307D150EA01331EBF4FF081
:100C4000FE4040F44000704701F0004040F0FE409C
:100C500040F40000704700BF80F0004002E000BF99
:100C600081F0004142001FBF5FEA410392EA030F97
:100C70007FEA226C7FEA236C6AD04FEA1262D2EBE1
:100C80001363C1BFD218414048404140B8BF5B42E6
:100C9000192B88BF704710F0004F40F4000020F07F
:100CA0007F4018BF404211F0004F41F4000121F095
:100CB0007F4118BF494292EA030F3FD0A2F10102DF
:100CC00041FA03FC10EB0C00C3F1200301FA03F11D
:100CD00000F0004302D5494260EB4000B0F5000F40
:100CE00013D3B0F1807F06D340084FEA310102F1FF
:100CF0000102FE2A51D2B1F1004F40EBC25008BFB1
:100D000020F0010040EA03007047490040EB00007A
:100D1000013A28BFB0F5000FEDD2B0FA80FCACF17B
:100D2000080CB2EB0C0200FA0CF0AABF00EBC250A8
:100D300052421843BCBFD0401843704792F0000F96
:100D400081F4000106BF80F400000132013BB5E7E9
:100D50004FEA41037FEA226C18BF7FEA236C21D05F
:100D600092EA030F04D092F0000F08BF08467047C4
:100D700090EA010F1CBF0020704712F07F4F04D192
:100D8000400028BF40F00040704712F100723CBFA5
:100D900000F50000704700F0004343F0FE4040F4CF
:100DA000000070477FEA226216BF08467FEA23638D
:100DB0000146420206BF5FEA412390EA010F40F478
:100DC000800070474FF0000304E000BF10F00043C4
:100DD00048BF40425FEA000C08BF704743F09643AB
:100DE00001464FF000001CE050EA010208BF7047C6
:100DF0004FF000030AE000BF50EA010208BF70474D
:100E000011F0004302D5404261EB41015FEA010C61
:100E100002BF84460146002043F0B64308BFA3F159
:100E20008053A3F50003BCFA8CF2083AA3EBC2533B
:100E300010DB01FA02FC634400FA02FCC2F120025A
:100E4000BCF1004F20FA02F243EB020008BF20F091
:100E50000100704702F1200201FA02FCC2F12002F7
:100E600050EA4C0021FA02F243EB020008BF20EAEC
:100E7000DC7070474FF0FF0C1CEAD0521EBF1CEA1A
:100E8000D15392EA0C0F93EA0C0F6FD01A4480EA08
:100E9000010C400218BF5FEA41211ED04FF00063F1
:100EA00043EA501043EA5111A0FB01310CF000401D
:100EB000B1F5000F3EBF490041EAD3715B0040EA43
:100EC000010062F17F02FD2A1DD8B3F1004F40EB13
:100ED000C25008BF20F00100704790F0000F0CF0E6
:100EE000004C08BF49024CEA502040EA51207F3AAA
:100EF000C2BFD2F1FF0340EAC250704740F4000085
:100F00004FF00003013A5DDC12F1190FDCBF00F075
:100F100000407047C2F10002410021FA02F1C2F123
:100F2000200200FA02FC5FEA310040F1000053EABF
:100F30004C0308BF20EADC70704792F0000F00F00D
:100F4000004C02BF400010F4000F013AF9D040EA13
:100F50000C0093F0000F01F0004C02BF490011F4A7
:100F6000000F013BF9D041EA0C018FE70CEAD153A5
:100F700092EA0C0F18BF93EA0C0F0AD030F0004C25
:100F800018BF31F0004CD8D180EA010000F00040D9
:100F9000704790F0000F17BF90F0004F084691F097
:100FA000000F91F0004F14D092EA0C0F01D14202D1
:100FB0000FD193EA0C0F03D14B0218BF084608D19A
:100FC00080EA010000F0004040F0FE4040F40000E4
:100FD000704740F0FE4040F4400070474FF0FF0C77
:100FE0001CEAD0521EBF1CEAD15392EA0C0F93EABE
:100FF0000C0F69D0A2EB030280EA010C49024FEA10
:10100000402037D04FF0805343EA111143EA1013C8
:101010000CF000408B4238BF5B0042F17D024FF480
:10102000000C8B4224BF5B1A40EA0C00B3EB510F5B
:1010300024BFA3EB510340EA5C00B3EB910F24BF44
:10104000A3EB910340EA9C00B3EBD10F24BFA3EBC9
:10105000D10340EADC001B0118BF5FEA1C1CE0D191
:10106000FD2A3FF650AF8B4240EBC25008BF20F044
:10107000010070470CF0004C4CEA50207F32C2BF98
:10108000D2F1FF0340EAC250704740F400004FF035
:101090000003013A37E792F0000F00F0004C02BF66
:1010A000400010F4000F013AF9D040EA0C0093F030
:1010B000000F01F0004C02BF490011F4000F013B8A
:1010C000F9D041EA0C0195E70CEAD15392EA0C0FF2
:1010D00008D142027FF47DAF93EA0C0F7FF470AF2A
:1010E000084676E793EA0C0F04D14B023FF44CAF6D
:1010F00008466EE730F0004C18BF31F0004CCAD102
:1011000030F000427FF45CAF31F000437FF43CAF3D
:101110005FE700BF4FF0FF3C06E000BF4FF0010C5F
:1011200002E000BF4FF0010C4DF804CD4FEA400241
:101130004FEA41037FEA226C18BF7FEA236C11D08B
:1011400001B052EA530C18BF90EA010F58BFB2EB3E
:10115000030088BFC81738BF6FEAE17018BF40F0BE
:10116000010070477FEA226C02D15FEA402C05D172
:101170007FEA236CE4D15FEA412CE1D05DF8040BF7
:10118000704700BF844608466146FFE70FB5FFF78A
:10119000C9FF002848BF10F1000F0FBD4DF808ED42
:1011A000FFF7F4FF0CBF012000205DF808FB00BF33
:1011B0004DF808EDFFF7EAFF34BF012000205DF88D
:1011C00008FB00BF4DF808EDFFF7E0FF94BF0120DA
:1011D00000205DF808FB00BF4DF808EDFFF7D2FFD7
:1011E00094BF012000205DF808FB00BF4DF808ED1A
:1011F000FFF7C8FF34BF012000205DF808FB00BFE7
:101200004FEA40024FEA41037FEA226C02D15FEAD3
:10121000402C08D17FEA236C02D15FEA412C02D135
:101220004FF0000070474FF0010070474FEA400256
:10123000B2F1FE4F0FD34FF09E03B3EB12620DD904
:101240004FEA002343F0004310F0004F23FA02F06E
:1012500018BF404270474FF00000704712F1610F15
:1012600001D1420205D110F0004008BF6FF00040EC
:1012700070474FF00000704742000ED2B2F1FE4FAF
:101280000BD34FF09E03B3EB126209D44FEA002355
:1012900043F0004323FA02F070474FF0000070471C
:1012A00012F1610F01D1420202D14FF0FF307047BD
:1012B0004FF00000704700BF7BB972B90029BEBF74
:1012C00000204FF0004106E008BF00281CBF6FF06F
:1012D00000414FF0FF3000F009BAADF1080C6DE9A4
:1012E00004CE002909DB002B1ADB00F083F8DDF8BF
:1012F00004E0DDE9022304B07047404261EB4101A4
:10130000002B1BDB00F076F8DDF804E0DDE90223BA
:1013100004B0404261EB4101524263EB430370472A
:10132000524263EB430300F065F8DDF804E0DDE9C9
:10133000022304B0404261EB41017047524263EB2B
:10134000430300F057F8DDF804E0DDE9022304B0C0
:10135000524263EB4303704753B94AB9002908BFAF
:1013600000281CBF4FF0FF314FF0FF3000F0BEB936
:10137000ADF1080C6DE904CE00F03CF8DDF804E0B6
:10138000DDE9022304B0704738B50022002304468B
:101390000D46FFF78BFB28B920462946BDE83840AB
:1013A00000F00AB8204605F1004100F005F840427F
:1013B00061EB410138BD00BFD0B50C4B00220646A1
:1013C0000F46FFF701F9FFF7D7FB0446FFF782F856
:1013D000074B0022FFF7F8F802460B463046394625
:1013E000FEF73AFFFFF7C8FB2146D0BD0000F03DF5
:1013F0000000F0412DE9F047089D8E4604468846DE
:10140000002B4AD18A42174662D9B2FA82F64EB10F
:10141000C6F1200301FA06F820FA03F3B74043EAC5
:101420000808B4404FEA174E1FFA87FCB8FBFEF1DC
:10143000230C0EFB118843EA084301FB0CF29A428D
:1014400009D9FB1801F1FF3080F0EA809A4240F29E
:10145000E78002393B449A1AA3B2B2FBFEF00EFBBE
:10146000102243EA024300FB0CFC9C4509D9FB18FF
:1014700000F1FF3280F0D6809C4540F2D3803B449F
:10148000023840EA0140A3EB0C0300211DB1F340F8
:101490000022C5E90032BDE8F0878B4205D90DB1C5
:1014A000C5E9000100210846F5E7B3FA83F10029F8
:1014B00046D1734502D3824200F20581841A6EEB55
:1014C000030201209046002DE5D0C5E90048E2E77F
:1014D000002A00F09080B2FA82F6002E40F0A4803C
:1014E0008A1A030C4FEA174E80B2BCB20121B2FB3C
:1014F000FEFC0EFB1C2243EA024304FB0CF29A4260
:1015000007D9FB180CF1FF3802D29A4200F2E080B2
:10151000C4469B1AB3FBFEF20EFB123340EA0343B0
:1015200002FB04F49C4207D9FB1802F1FF3002D2FF
:101530009C4200F2CA8002461B1B42EA0C40A5E70F
:10154000C1F120068B4022FA06F71F430EFA01F480
:1015500020FA06F32EFA06FE4FEA1749234300FA53
:1015600001F81FFA87FCBEFBF9F01C0C09FB10EE1A
:1015700044EA0E4400FB0CFEA64502FA01F209D92A
:101580003C1900F1FF3A80F09C80A64540F299801A
:1015900002383C44A4EB0E041FFA83FEB4FBF9F3BB
:1015A00009FB13444EEA044403FB0CFCA44508D990
:1015B0003C1903F1FF3E80F08280A4457FD9023BB5
:1015C0003C4443EA0040A4EB0C04A0FB02EC64455D
:1015D0007346E14662D35FD05DB1B8EB030264EBC2
:1015E000090404FA06F622FA01F31E43CC40C5E9C9
:1015F000006400214FE7B1FBF2FC010C41EA0E410F
:1016000080B240EA01423B4638463C46B846BE46B8
:101610002026B1FBF7F1A2EB080241EA0C4166E794
:10162000014618E710462CE7C6F120022EFA02F315
:10163000B740B14020FA02F24FEA174E0A43B3FB1B
:10164000FEF8BCB20EFB1833110C41EA034108FB53
:1016500004F9B04089454FEA104380B23ED9791869
:1016600008F1FF3C01D289451FD8A1EB0901B1FB6C
:10167000FEF909FB04F80EFB191192B242EA01428D
:10168000424529D2BA1809F1FF31C4D24245C2D22B
:10169000A9F102013A44BEE7F0459DD2BEEB020338
:1016A0006CEB070C0138E14696E7A7EB09094944C2
:1016B000A8F1020CB1FBFEF909FB04F8DBE7734665
:1016C0007FE7504666E70846FDE63B44023A33E7CB
:1016D000ACF1020C3B441CE749469CE7A1EB090135
:1016E000C446B1FBFEF909FB04F8C4E7704700BF2C
:1016F00008B501F03FFC044B9860044A002151609A
:1017000052685A6008BD00BF94260020001000E017
:10171000F8B5124B5D68124E73680027ED1A3C460F
:1017200001F028FCB368C01A3268904213D93B46D6
:101730003946FFF711FECA0742EA5002C3071B1AD7
:1017400062EB0102DB1852411B1842EB01045B19EA
:101750001D4644F1000428462146F8BD001000E073
:101760009426002030B585B010F01EFB144D0024E7
:101770006C60642001F002FC6868124BA3FB00302F
:101780006A464009214610F09DFA039A0199029B8E
:10179000642000FB01310C4810F082FA6A464FF0D9
:1017A000FF30002110F08EFA019A029B4FF47A71FB
:1017B00001FB0233054A136010F0F6FA05B030BDA4
:1017C000001000E01F85EB5130DA0108942600205C
:1017D00010B514F03BFA0A4C204600F0B7FF012286
:1017E0000849204600F052FF074A0849204600F009
:1017F000C9FE074A0749204600F0F8FE002010BD48
:10180000A0070020040000209C070020940700206F
:1018100098070020900700202DE9F04385B0FFF7DE
:10182000A1FF2D4C2D4B196804F1380010F038FA47
:1018300004F15C0104F1640010F032FAFFF758FF84
:1018400001F098FB07460121254800F027FC81465E
:10185000002834D1FFF75CFF0446224E336803446E
:10186000336001F087FB80466A462046002110F075
:1018700029FA194D039A0199029B4FF47A7000FBE3
:10188000013105F1B40010F00BFAA8EB070105F1E6
:10189000D40010F005FA214605F1F00010F000FA2E
:1018A00031680E4A136801331360B1FBF3F105F59B
:1018B000867010F0F5F9484605B0BDE8F083084899
:1018C00000F0C8FE814614F0A7F8014604F18C0030
:1018D00010F0E6F9BEE700BF30DA01088C070020FF
:1018E000A00700208807002070B582B006460D468C
:1018F000002417E0002C15DD0023335502B070BD25
:10190000002C0FDD013C0DE0164B1A680821116216
:10191000072111620022C3F88C202021C3F888100F
:1019200083F880206B1EA342E6DD4FF0FF330122D7
:101930000DF107010B4806F001FF0028E4D19DF8E6
:1019400007300A2BD6D00D2BD4D0082BD8D07F2B24
:10195000D6D0A3F12002D2B25E2AE3D833550134A7
:10196000E0E700BF9C15002010B5A2B0294C04F59B
:10197000947010F095F9402112A8FFF7B5FF12A955
:1019800004F5AC7010F08CF9242200210DEB02005C
:1019900017F065F804AB029305AB019306AB009317
:1019A00007AB08AA04F5BC7112A816F0CDFF0528F4
:1019B00014D1089B0C93079B013B0D93069BA3F24C
:1019C0006C730E93059B0B93049B0A9309A817F065
:1019D00043FA114BC3E9000122B010BD04AB0293DE
:1019E00005AB019306AB009307AB08AA04F5C471DD
:1019F00012A816F0A9FF0528DBD001230C930023C1
:101A00000D937E220E920B930A93044810F048F92E
:101A1000DCE700BF30DA0108D0070020C8DB01088E
:101A20002DE9F04F9FB04FF0000B4DE03E4810F015
:101A300037F954E001300C900C980378202BF9D042
:101A4000092BF7D02C2BF5D00A220DA916F0C4F9DA
:101A500007900D9A0C9B9A4205D1344810F020F95A
:101A600032E001310D910D990878A0F10903DBB244
:101A7000172B05D82E4A22FA03F313F0010FF0D1E9
:101A800000283DD10BF1010B2A4A13680133136082
:101A9000072B39DC28490B68284A42F82380013398
:101AA0005A4203F0070302F0070258BF53420B608B
:101AB000234B079A1A60234A1368516813F5617320
:101AC00041F10001136051601A4B1968082900F3B5
:101AD000ED810729AADC01311B4810F0E1F80EACBA
:101AE00040212046FFF700FF0CA9204616F0A0F881
:101AF00080460C9BA3429FD1144810F0D1F8E3E735
:101B0000134810F0CDF8DFE7124B1C680798FFF779
:101B10005DF91149FFF762FA206010494046FFF76E
:101B20005DFA606000222EE034DC010884DC0108EC
:101B30001300800084070020800700206007002039
:101B40005C070020D0070020FCDB01085CDC0108FA
:101B5000BCDC0108940700200000A0400000904079
:101B6000BA4B1B68013B9B1A0833594203F0070329
:101B700001F0070158BF4B42911CB54850F8233083
:101B800044F821300132072AEADDB24816F082FF1C
:101B900082468368C3EB0313466806EB8306AE4DAB
:101BA00085FB06353544F717C7EBA5204FF4B4691C
:101BB00009FB1060FFF70AF9A849FFF70FFA089030
:101BC000C7EB65234FF4347000FB1360FFF7FEF89A
:101BD000A349FFF703FA0990C7EB25234FF4B4702C
:101BE00000FB1360FFF7F2F89E49FFF7F7F90A9040
:101BF000C7EBE517B42000FB1760FFF7E7F89A4939
:101C0000FFF7ECF90B90DAF818300633974A82FBAD
:101C100003121A44DD17C5EBA205C5EBC5055D1B14
:101C200009FB0560FFF7D2F89149FFF7D7F9814624
:101C30009049FFF71FF9FEF76FFC06460F461AF0B2
:101C4000DDFDFEF7B9FFA062304639461AF090FD7F
:101C5000FEF7B2FFE06287490898FFF70BF9FEF73D
:101C60005BFC06460F461AF0C9FDFEF7A5FF206390
:101C7000304639461AF07CFDFEF79EFF60637D49D1
:101C80000998FFF7F7F8FEF747FC06460F461AF0EB
:101C9000B5FDFEF791FFA063304639461AF068FDA6
:101CA000FEF78AFFE06373490A98FFF7E3F8FEF74F
:101CB00033FC06460F461AF0A1FDFEF77DFF2064B7
:101CC000304639461AF054FDFEF776FF60646949E4
:101CD0000B98FFF7CFF8FEF71FFC06460F461AF0E9
:101CE0008DFDFEF769FFA064304639461AF040FDCD
:101CF000FEF762FFE064C4F850902846FFF766F8EC
:101D00005D49FFF76BF960655C4B1868FFF75EF89B
:101D10005B49FFF763F9A065FFF77EFD594B1B6830
:101D2000D3F800A05D6829464046FEF799FF20F0F1
:101D300000440799B9B9544B4FF07C521A60CBB2AA
:101D4000524A137044464FF0000900212046FFF725
:101D50002FFA00283FD14E492046FFF747FA0028C6
:101D60003AD04B4C38E0079B052B0FD049494046F1
:101D7000FFF71EFA50B948494046FFF72DFA28B937
:101D80002146414B1868FFF713FAC0B143493E4B57
:101D90001868FEF767FF04464FF07F51FFF708FA17
:101DA00008B94FF07F54384B1C609DF81C30374AFF
:101DB0001370062313702C464FF00109C5E7324B10
:101DC0004FF07C521A609DF81C30304A1370444624
:101DD0004FF00009B9E700241C490B681C4A42F87F
:101DE000234001335A4203F0070302F0070258BFB1
:101DF00053420B60214B079A1A604046FEF78CFB5A
:101E000006460F465046FEF787FBCDE90401CDF8A4
:101E100008902846FEF780FBCDE9000132463B469C
:101E200059461F480FF03CFF0A4A1368516813F5E2
:101E3000617341F10001136051601A492046FFF7B8
:101E400019F8FFF719FA184B18603DE680070020D3
:101E500060070020D0070020B7600BB60000B44434
:101E6000000034440000B4430000344393244992FA
:101E700000801D46DB0FC9400000C0405C07002009
:101E80000000A0409007002000000020D80700209C
:101E900000009040CDCC4C3D66668E40CDCCCC3D14
:101EA000F4DC010800007A441818002008221A60A7
:101EB0001FB0BDE8F08F00BF08B5FFF789FC08BD73
:101EC00008B5FFF7ADFD08BD0022DAB10369012AAC
:101ED00020D00022134303610022F2B1012A24D052
:101EE000002213430361002212B3012A29D00022E9
:101EF0001343036100223AB3012A2ED00022134378
:101F00000361704702F1080350F82330002BDDD045
:101F10000132DAE74FF08062DCE702F10A0150F8A3
:101F200021100029DAD00132D7E74FF00062D8E75C
:101F300002F10A0100EB810149680029D5D0013284
:101F4000D2E74FF08052D3E702F1080100EB8101A4
:101F500049680029D0D00132CDE74FF08042CEE76A
:101F600038B50023436110F0070F11D105468446B0
:101F7000084C0FCCACE80F000FCCACE80F0094E895
:101F80000F008CE80F002846FFF79EFF686938BDF8
:101F90000148FCE700DE01080200030010B586B02E
:101FA0000446826A154B9A60DA60036A0433144A65
:101FB0009360D360836963B1002201920121029191
:101FC000104A92699268049204AA039201AAC06915
:101FD00098470D4813F03CFEA3696BB100220192B3
:101FE00001220292094A92699268059205AA039217
:101FF00001AA0221E069984706B010BD3002002016
:1020000020020020B401002064000020780100209C
:1020100010B586B00446036A194A9360D36044330E
:10202000184A9360D360C26A174B9A60DA6083697A
:102030008BB10922009202220192144A926992689D
:102040000392134A92699268049203AA02926A4622
:102050000121C06998470F4813F038FFA3696BB19D
:1020600009220092012201920B4A9269926805921C
:1020700005AA02926A460221E069984706B010BD9F
:102080001002002000020020F0010020C400002007
:1020900000010020080000203C010020002800F082
:1020A000648270B5A4B0044610F0070F40F060825F
:1020B0000268054B9A4209D0436913B94FF4403383
:1020C0004361606924B070BD0001C0B1036913F0C1
:1020D000806F00F0318213F0006F00F0348213F053
:1020E000805F00F0368213F0804F00F03882036A80
:1020F0000393826A0492436A059303F5B8530693E7
:10210000172307934023089301230993836943B15D
:102110000121009101910A920AAA02926A46C069BD
:10212000984703A814F0CEFBA36953B10122009293
:102130000192226A0B920BAA02926A460221E0697E
:102140009847256AA36943B10121039104910C9535
:102150000CAA059203AAE069984700234022294669
:10216000284614F0ABFDA3694BB1012203920492FF
:102170000D950DAA059203AA0221E0699847226AEB
:1021800002F5AE7303930492636A03F5C05105919F
:1021900003F56053069340230793202308930123FC
:1021A0000993A3694BB103210091012101910E9282
:1021B0000EAA02926A46E069984703A814F082FBCF
:1021C000A5696DB10323009301230193236A03F5ED
:1021D000AE730F930FAB02936A460221E069A847E2
:1021E000256A05F5AE76A3694BB10322039201215E
:1021F0000491109610AA059203AAE069984700235B
:1022000020223146284614F059FDA36953B1032218
:10221000039201220492119511AA059203AA0221A8
:10222000E0699847226A02F1800303930492636A8B
:1022300003F56251059103F5645306932023079338
:10224000012308930993A3694BB104210091012153
:102250000191129212AA02926A46E069984703A875
:1022600014F030FBA56965B10423009301230193A9
:10227000236A8033139313AB02936A460221E06909
:10228000A847256A05F18006A3694BB10522039290
:1022900001210491149614AA059203AAE0699847B3
:1022A000002301223146284614F0E6FCA36953B10D
:1022B0000522039201220492159515AA059203AAFC
:1022C0000221E06998472046FFF768FE236A03F180
:1022D000580203921A1D0492636A03F56451043193
:1022E000059103F59C43043306931523079340237C
:1022F000089301230993A3694BB1022100910121A5
:102300000191169216AA02926A46E069984703A8BC
:1023100014F0D8FAA5695DB102210091012301935F
:10232000236A5833179317AB02936A46E069A847AC
:10233000256A5835A3694BB1022203920121049109
:10234000189518AA059203AAE0699847002340222D
:102350002946284614F0B2FCA3694BB1022103912F
:1023600001220492199519AA059203AAE0699847D7
:10237000236A03F5AC72039203F158020492636A74
:1023800003F59E410431059103F5DE4304330693C2
:10239000402307932023089301230993A3694BB19A
:1023A00006210091012101911A921AAA02926A460D
:1023B000E069984703A814F085FAA5696DB1062372
:1023C000009301230193236A03F5AC731B931BABAA
:1023D00002936A460221E069A847256A2E1D05F589
:1023E000AC75A3694BB106220392012104911C959F
:1023F0001CAA059203AAE0699847002320222946D7
:10240000304614F05BFCA36953B10622039201220B
:1024100004921D961DAA059203AA0221E06998471D
:10242000236A03F1840203921A1D0492636A03F57E
:10243000DF410431059103F5EF4304330693202374
:1024400007931023089301230993A3694BB1072134
:102450000091012101911E921EAA02926A46E06932
:10246000984703A814F02EFAA56965B107230093D5
:1024700001230193236A84331F931FAB02936A469F
:102480000221E069A847256A2E1D8435A3694BB156
:102490000722039201210491209520AA059203AA04
:1024A000E0699847002310222946304614F006FCC4
:1024B000A36953B10722039201220492219621AA13
:1024C000059203AA0221E0699847236A03F14402B6
:1024D00003921A1D0492636A03F5EF41443105919A
:1024E00003F5F04304330693102307930123089365
:1024F0000993A3694BB10821009101210191229216
:1025000022AA02926A46E069984703A814F0DAF911
:10251000A56965B10823009301230193236A44331D
:10252000239323AB02936A460221E069A847204621
:10253000FFF76EFD6069C5E5436913B94FF4802369
:1025400043616069BEE543690BB90A4B4361606949
:10255000B8E543690BB9084B43616069B2E543696B
:102560000BB9064B43616069ACE54FF440307047EE
:102570000348A7E510000400200004004000040008
:102580000200030030B3034610F0070025D110B459
:10259000134CD3F800C0A44507D05A6912B94FF4C0
:1025A00040325A61586910BC70472AB10124146046
:1025B00001B138B15869F6E75A690AB9094A5A614E
:1025C0005869F0E700F10A0253F8222041F8202070
:1025D0000130EDE74FF4403070470348704700BFCB
:1025E0000001C0B1010002000200030038B303463D
:1025F00010F0070026D110B4134CD3F800C0A44546
:1026000007D05A6912B94FF440325A61586910BC68
:1026100070472AB10124146001B138B15869F6E756
:102620005A690AB9094A5A615869F0E700F10A0281
:1026300003EB8202526841F820200130ECE74FF4AE
:1026400040307047024870470001C0B101000200ED
:1026500002000300034678B110F0070F0FD10168A4
:10266000084A914206D0426912B94FF440324261A1
:1026700058697047406970474FF4403070470248CE
:10268000704700BF0001C0B10200030000284ED017
:1026900010B582B0044610F007034BD12648D4F899
:1026A00000C0844507D0636913B94FF440336361B8
:1026B000606902B010BD0420019039B1012A1BD01D
:1026C00063690BB91D4B63616069F2E763690BB91C
:1026D0001B4B63616069ECE751F82320D2B102A87B
:1026E00000EB830050F8040C0138024219D103F1C9
:1026F000080044F820200133002BEDD00B6803F5CF
:102700008073A3620B680433E3622046FFF7DCFBAF
:102710006069CEE7636913B94FF480236361606930
:10272000C7E763690BB9074B63616069C1E74FF4A1
:10273000403070470448BCE70001C0B1010004000C
:1027400001000200700004000200030008B5FFF75A
:1027500007FC08BD08B51348134B03604FF0004356
:10276000436000238360C3600361042242610376F7
:10277000437683760122C26180F82030436283620F
:1027800080F82C304FF48052026307224263826348
:1027900080F83C30C36401F0DDFF00B908BD00F0F3
:1027A000DBF8FBE7EC070020002401400268094B3E
:1027B0009A4200D0704782B04FF0B0431A6E42F494
:1027C00000721A661B6E03F400730193019B02B042
:1027D000704700BF002401400268054B9A4200D0B8
:1027E00070474FF0B042136E23F400731366F7E79F
:1027F00000240140014B024A1A607047EC07002098
:102800000024014030B585B00446002301930293B3
:102810000393FFF79FFF164802F0F0FBF8B901940D
:1028200000230293039301A9114802F033F9C8B9B8
:102830000F4802F0F1FAC0B90D4C4FF0FF312046BD
:1028400002F0C6F8204602F0B9FB204602F01FF95C
:102850000546204602F05CFB284605B030BD00F07E
:102860007BF8DCE700F078F8E2E700F075F8E3E7E2
:10287000EC07002008B50D48FFF7C4FFA0B10346E0
:102880000B4AB2F8AA004FF6FF72904207D040F60A
:10289000E44202FB00F0B0FBF3F080B205E0054833
:1028A000B0FBF3F080B200E0002008BD002000B4CF
:1028B0000075FF1FD8084C0010B582B0FFF7DAFF93
:1028C00004461F48FFF79EFF1E4AB2F8C830B2F810
:1028D000A82093421AD000FB04F4A4081A49A1FBD3
:1028E0000414C2EB5414642101FB04F49B1A94FBFE
:1028F000F3F41E3424B20094144B0122002110463C
:1029000011F0BEFE200200B202B010BD04FB00F0C8
:102910000F4BA3FB0023C41A03EB5403DB0A4FF451
:102920007A7202FB03F3A3F53923A3F50C63094A7A
:1029300082FB0312DB17C3EBA2231E331CB2DAE7C0
:10294000001000B00075FF1F9F00EE0988560208B6
:1029500001011000AD8BDB6872B6FEE710B59AB0CE
:102960004822002108A816F07AF800240294039463
:10297000049405940694079402F0D6FF4FF0B042F9
:10298000D2F8903023F01803C2F8903002F580623C
:10299000136823F4C06343F400731360136803F4F3
:1029A000C0630193019B2423089381230B9301238C
:1029B00010931194B0231293139408A803F04EF9C6
:1029C00070B94F2302930023039304930593069356
:1029D0000793022102A803F07DFC18B91AB010BDBC
:1029E000FFF7BAFFFFF7B8FF08B501F059FEFFF790
:1029F000B5FF01F00BFBFEF7B7FF01F00DFBFCE7A5
:102A000000B58DB02C22002101A816F028F8194835
:102A1000194B03601F2383600023036143618361BB
:102A20004FF08042C26103624FF48073436203F04F
:102A300079FFA8B90F4804F0B3F8A0B900220892B2
:102A4000029206924FF0005307934FF480730B935A
:102A500001A9084803F0C8FF40B90DB05DF804FBB8
:102A6000FFF77AFFE6E7FFF777FFE7E7FFF774FF87
:102A7000F3E700BF500800200028004010B590B0D8
:102A800004463822002102A815F0E9FF22681A4BFB
:102A90009A4201D010B010BD4FF4803302934FF42E
:102AA00080730F9302A803F057FD08BB4FF0B043AB
:102AB000D3F8902042F40042C3F890209A6D42F47B
:102AC00080629A659B6D03F480630193019B0022F1
:102AD0001146022002F048FB022002F055FB0022C2
:102AE00011462A2002F040FB2A2002F04DFBD1E7DC
:102AF000FFF732FFDAE700BF002800407047704759
:102B000008B501F0EFFD0120024BC3F8880002F088
:102B10006FFF08BD0004005808B501F0EAFD08BDCC
:102B200008B501F0E6FD01F00FFA08BD08B501F0A7
:102B3000D9FD0121002002F0FFFE08BD704770475B
:102B4000704770477047704770477047704708B5C7
:102B500001F0BCFD08BD000008B5024804F04CF8C7
:102B600008BD00BF500800207047000008B50248AB
:102B700002F00EFD08BD00BF2C13002008B502486E
:102B800002F006FD08BD00BFCC12002008B50248C7
:102B900002F0FEFC08BD00BFEC13002008B502489F
:102BA00002F0F6FC08BD00BF8C13002008B50248F7
:102BB00002F0EEFC08BD00BFAC14002008B50248CE
:102BC00002F0E6FC08BD00BF4C14002008B5024826
:102BD00004F0CCFE08BD00BF9C15002008B50248DB
:102BE00004F0C4FE08BD00BF0C15002008B5024863
:102BF00004F0BCFE08BD00BF2C16002008B502483A
:102C000003F00AFE08BD00BF5008002008B50248C6
:102C100004F0A0FA08BD00BF8808002008B50548E8
:102C20000823036004F01EF800B908BDFFF794FE06
:102C3000FBE700BF8808002000B583B04FF0B04329
:102C40005A6E42F001025A665B6E03F00103019373
:102C5000019B00221146322002F086FA322002F057
:102C600093FA03B05DF804FB0CB400B583B004AB79
:102C700053F8042B019312F019FD03B05DF804EB37
:102C800002B0704730B585B004460D4602A811F079
:102C90004DFFBDF90C300093029B054A10212046E0
:102CA000FFF7E2FF2046FDF7CBFA288005B030BDE4
:102CB0009456020810B58AB0002305930693079333
:102CC000089309934FF0B044E36C43F00103E364CD
:102CD000E36C03F001030493049BE36C43F00203F1
:102CE000E364E36C03F002030393039BE36C43F0A0
:102CF0000403E364E36C03F004030293029BE36CBC
:102D000043F08003E364E36C03F080030193019BD1
:102D10000323069349F6FF73059305A94FF09040EE
:102D200002F0ACFC4FF6FF73059305A90E4802F0C4
:102D3000A5FC05A90D4802F0A1FC05A90C4802F06C
:102D40009DFCE36C23F00103E364E36C23F00203D6
:102D5000E364E36C23F00403E364E36C23F0800397
:102D6000E3640AB010BD00BF00040048000800483A
:102D7000001C004870B586B00024019402940394AE
:102D8000049405944FF0B043DA6C42F00202DA6426
:102D9000DB6C03F002030093009B0F4E22464FF4BE
:102DA0008061304602F0BAFD4FF480630193012543
:102DB00002950394049401A9304602F05FFC01954A
:102DC000039403230493029501A94FF0904002F06D
:102DD00055FC06B070BD00BF0004004810B58CB0B3
:102DE0004FF0B042936823F40043936011F022FF48
:102DF000FFF760FF00F0D3F800F0F3F8EC46134C57
:102E00000FCCACE80F000FCCACE80F0094E80F003B
:102E10008CE80F00684600F027FB11F0BDFB0C4862
:102E200011F0D4FB022011F0D7FBFFF7E3FCFFF712
:102E3000A1FF01F055FBFFF73FF811F0DDFC012188
:102E4000084611F0F9FC0CB010BD00BF34DD0108DC
:102E5000852C000808B511F005FD08BD10B582B03D
:102E6000FFF708FD40F6B83398420DD8B0F5E16F92
:102E700015D3A0F5E160C0EBC0104400094BA3FBE3
:102E80000434C4F3C71400E0FE240094064B01226E
:102E90000021022011F0F4FB204602B010BD0024F6
:102EA000F3E700BFB5814E1BA056020808B5FFF737
:102EB00003FD0346002802DBC3F30F2008BD00F129
:102EC000FF03F9E738B50446184BD3F88035B3F162
:102ED000FF3F13D0C3711A0A82711A0C42711B0E84
:102EE0000371124BD3F88425C270D3F884351A0AC3
:102EF00082701A0C42701B0E037038BD01F000FC8A
:102F0000054601F009FC054401F000FC2B0EE371BD
:102F10002B0CA3712B0A63712571030EE370030C54
:102F2000A370030A63702070E7E700BF0070FF1F03
:102F3000084BD3F88005B0F1FF3F00D0704710B5C3
:102F400001F0DEFB044601F0E1FB444001F0E4FB4C
:102F5000604010BD0070FF1F08B50121022011F074
:102F600055FC08BD08B50021022011F04FFC08BD3A
:102F70000020704708B500F0A1F808BD00B583B087
:102F80000190019800F072F903B05DF804FB08B5F8
:102F900001F0C8FB01F0CEFB01F0D4FB08BD10B579
:102FA00086B00024019402940394049405940323AE
:102FB00002934FF4C04301934FF0B043DA6C42F0F8
:102FC0000102DA64DB6C03F001030093009B01A9AA
:102FD0004FF0904002F052FB2046FFF7D8FF06B0BA
:102FE00010BD70470120704708B516F02FFC16235E
:102FF00003604FF0FF3008BD08B54FF0FF31FFF719
:10300000F3FFFEE770B50C461646002506E0AFF369
:103010000080214601F8010B01350C46B542F6DB74
:10302000304670BD4FF0FF3070474FF400534B6097
:1030300000207047012070470020704710B50346FC
:103040000C4A0D490D48006840B10C480068034423
:10305000521A934206D8094A136010BD0748084C1B
:103060000460F2E716F0F2FB0C2303604FF0FF3030
:10307000F3E700BF000001200010000098080020C6
:1030800070300020024B9868C043024B18607047B4
:10309000002800409C080020014B1868704700BFC2
:1030A0009C080020034B9B68DB43034A1068181AF6
:1030B000704700BF002800409C080020044B1B788C
:1030C0001BB1044B9868C04370470020704700BF95
:1030D000A0080020002800400320704708B50146E2
:1030E0004FF47A7200238002890DFEF735F908BD8E
:1030F000C20E43011B1A62F10002920042EA93726F
:103100009B001B1842F10000C00040EA5370C3F35B
:10311000D51343EA8050704710B5074B0122DA659A
:10312000064C4FF48071204603F036FB4FF0FF331E
:103130002363002010BD00BF00280040500800207D
:1031400008B502460221024803F06BFD08BD00BF2E
:103150005008002038B50F4B1B780BB1002038BD4C
:103160000D4C4FF0FF352563FFF74AFCFFF7D4FF06
:103170004FF48071204603F00FFB2563204603F0D7
:10318000EFFC0020FFF7DCFFFFF77CFF014B012283
:103190001A70E3E7A00800205008002008B5024696
:1031A0000021024803F03DFD08BD00BF500800208B
:1031B00008B502460121024803F033FD08BD00BFF7
:1031C0005008002010B58CB004462C22002101A824
:1031D00015F045FCFFF7A0FF0C4B1B681C440023B7
:1031E0000893E443029406934FF0005307934FF47F
:1031F00080730B93012201A9054803F0F5FB10B978
:1032000000200CB010BDFFF7A7FBF9E79C080020D9
:103210005008002008B50221014803F009FD08BD4F
:103220005008002038B50546074B9C68E443FFF77B
:10323000F1FF2346A40A44EA8054C3F30900FFF7D0
:1032400057FF2880204638BD0028004008B50021DF
:10325000014803F0EDFC08BD5008002008B501212D
:10326000014803F0E5FC08BD5008002008B5FFF751
:1032700035FF054B9A6800E000BF034B9B68D31AEB
:103280009842F9D808BD00BF0028004008B511F0E9
:10329000F5FD08BD08B5FFF7BDFF0130FFF750FF92
:1032A00008BD00000368094A934209D0A2F57442A0
:1032B000934207D002F57052934205D0FF20704729
:1032C00000207047012070470220704700380140FD
:1032D00008B5FFF7E7FFFF2804D03622024B02FBB8
:1032E000003008BD0020FCE78C09002008B5FFF77E
:1032F000D9FFFF2803D0034B03EB401008BD00208B
:10330000FCE700BF2C09002070B582B006460D46D0
:103310000368254A93423ED0A2F5744293423CD0C2
:1033200002F5705293423AD000244FF0B0439A6CA9
:1033300042F001029A649A6C02F001020192019A31
:103340009A6C42F004029A649B6C03F004030093AD
:10335000009B2B692360AB69AA7B63601023A36089
:103360000023E360802121616361A361E361226244
:10337000204601F081FFA0B9B467A6620022A97BB4
:1033800095F9200001F0F0FE95F9200001F0FCFE17
:10339000002002B070BD054CC7E7054CC5E7054CE1
:1033A000C3E76FF00300F4E7003801408C130020FE
:1033B000CC1200204C14002070B582B006460D4699
:1033C0000368254A93423ED0A2F5744293423CD012
:1033D00002F5705293423AD000244FF0B0439A6CF9
:1033E00042F001029A649A6C02F001020192019A81
:1033F0009A6C42F004029A649B6C03F004030093FD
:10340000009B6B692360EB69AA7B63600023A36068
:10341000E360802121616361A3612023E361226273
:10342000204601F029FFA0B9F467A6620022A97B1B
:1034300095F9210001F098FE95F9210001F0A4FE14
:10344000002002B070BD054CC7E7054CC5E7054C30
:10345000C3E76FF00300F4E700380140EC130020ED
:103460002C130020AC1400202DE9F04F9DB0002358
:103470001793189319931A931B93002800F0148143
:1034800005460368002B00F01281924A934200F037
:103490008A80914A934200F0BC80904A934240F067
:1034A00009814FF0B043DA6D42F00102DA65DA6D5E
:1034B00002F001020992099ADA6C42F00402DA641D
:1034C000DB6C03F004030893089B03231793022289
:1034D00018921A9308231B9317A9814802F0CEF87B
:1034E000804E814C2B68204640F8043BD5F804B050
:1034F000D5F808A0D5F80C90D5F810806F69AB69A5
:103500000193EA690292296A03912422002115F0AD
:10351000A6FAC4F804B0C4F808A0C4F80C90C4F823
:1035200010806761019BA361029AE26103992162A5
:103530006B6AA362204605F0D1F9002840F0BD80F7
:103540000021204605F093FB002840F0B9800021BF
:10355000204605F0B1FB002840F0B580204605F07C
:1035600062FB002840F0B2800022717B96F90C00CB
:1035700001F0FAFD96F90C0001F006FE95F82C30EA
:10358000023BDBB2012B68D995F82C30012B6DD0B2
:10359000032B6BD02046FFF785FEFF286FD100205C
:1035A0001DB0BDE8F08F3822002109A815F057FAA8
:1035B0000123099303F540330A9309A802F0CCFFD5
:1035C00020BB4FF0B0431A6E42F480421A661A6E66
:1035D00002F480420592059ADA6C42F00202DA6443
:1035E000DB6C03F002030493049BC02317930223B4
:1035F00018930023199303231A9307231B9317A9E6
:103600003A4802F03BF83A4E3A4C6BE76FF007004D
:10361000C6E74FF0B0439A6D42F400329A659A6D56
:1036200002F400320792079ADA6C42F00102DA647F
:10363000DB6C03F001030693069B0C231793022314
:10364000189303231A9307231B9317A94FF0904055
:1036500002F014F8284E294C44E731462046FFF783
:1036600053FE002890D06FF0030099E731462046C2
:10367000FFF7A2FE00288DD06FF0030090E700EB6B
:1036800040002B461E4A02EB001230351E685C6873
:103690009868D968166054609060D1601033103219
:1036A000AB42F3D100207BE76FF0050078E76FF0C5
:1036B000050075E74FF0FF3072E76FF007006FE726
:1036C0006FF010006CE76FF0110069E76FF0120007
:1036D00066E700BF00380140004400400080004021
:1036E00000080048946102082C16002000040048DD
:1036F0004C6102089C150020706102080C15002026
:103700003812002070B108B5026872B1FFF7CAFD27
:10371000FF280DD000EB4000074B03EB0010FFF734
:10372000A3FE08BD6FF0050070476FF00500F8E7D5
:103730004FF0FF30F5E700BF38120020014B186052
:10374000704700BFA408002010B50C46FFF7C0FD6D
:1037500028B1022C06D880F83440002010BD4FF06C
:10376000FF30FBE76FF00900F8E708B5FFF7B0FDA1
:1037700068B102783AB94278D2B28378DBB29A4221
:1037800003D0012000E0012008BD0020FCE700205C
:10379000FAE70000002867D038B50446FFF7EAFBD7
:1037A00000F57A752046FFF7E0FF30B1FFF7E2FB46
:1037B000A842F7D9204603F0C1FF23682D4A93425F
:1037C00017D0A2F57442934215D002F5705293427D
:1037D0004DD1294D204603F0CBFE2368254A934264
:1037E0000BD0264A93421AD0254A93422AD0002071
:1037F00038BD244DEEE7244DECE74FF0B042136E98
:1038000023F48043136629686B6819431F4802F04C
:1038100007F895F90C0001F0BBFC0020E8E74FF039
:10382000B042936D23F40033936529686B681943A4
:103830004FF0904001F0F4FF95F90C0001F0A8FC66
:103840000020D5E74FF0B042D36D23F00103D365DC
:1038500029686B6819430E4801F0E2FF95F90C00E6
:1038600001F096FC0020C3E76FF0050070474FF0B1
:10387000FF30BDE700380140946102080044004079
:10388000008000404C61020870610208000400489A
:1038900000080048F8B50546FFF71AFD70B3044666
:1038A00003785BB390F835304BBB72B68678F6B2CE
:1038B000394B1A6832B106EB460300EB4303197A21
:1038C0002846904706EB460604EB4606F388334A43
:1038D00011680B44C3F30A031360A37801335A42FF
:1038E00003F0070302F0070258BF5342DBB2A37094
:1038F0000023237062B6284600F054F8F8BD002378
:1039000080F835308378DEB203EB430300EB4303EA
:103910009988DA88A1F500610A4492B25B7A012B9A
:1039200026D0022B2AD11E49284603F0A9FE0746BD
:10393000002FE3D072B606EB460604EB4606F3888A
:10394000164A11680B44C3F30A031360A3780133CA
:103950005A4203F0070302F0070258BF5342DBB29A
:10396000A3700023237062B6284600F01BF8C5E759
:103970000B49284603F01EFE0746D9E74FF0FF33F8
:103980000749284604F06BFE07460028D2D1284696
:10399000FFF780FFCCE700BFA4080020300A00201A
:1039A000380A002070B50546FFF792FC002836D093
:1039B000044672B603788BBB4278D2B28378DBB20E
:1039C0009A422BD0012303708378DBB262B603EBFB
:1039D000430200EB42029188D2888818B0F5006F4C
:1039E0002EDDC1F5006292B2012084F8350003EBB0
:1039F000430304EB43035B7A834211D0022B16D1BD
:103A0000234B1944284603F03BFE06463EB172B6EE
:103A10000023237084F8353062B600E062B670BDD2
:103A20001B4B1944284603F0C5FD0646EEE74FF050
:103A3000FF3317480144284604F011FE0646E5E727
:103A4000002084F8350003EB430304EB43035B7A67
:103A5000012B08D0022B0DD10D4B1944284603F041
:103A60000FFE0646D2E70A4B1944284603F0A2FD92
:103A70000646CBE74FF0FF3305480144284604F0E3
:103A8000EEFD06460028C2D12846FFF703FFBDE73A
:103A9000380A0020002800F08E802DE9F84F0E46ED
:103AA00015469B460746002900F08880002A00F052
:103AB0008880B2F5006F80F08780FFF709FC04462C
:103AC000002800F08480FFF755FA804605E0FFF7F4
:103AD00051FAA0EB080064287CD872B63F4B1A68F4
:103AE0003F4B1B6862B69B1A013BC3F30A02637823
:103AF0000133594203F0070301F0070158BF4B425D
:103B0000DBB2A178C9B29942E1D09542DFD872B652
:103B1000324BD3F8008005EB0809B9F5006F39D9AD
:103B20001FFA88F9C9F500691FFA89F94A46314632
:103B30002C4B03EB080015F0C0FEA5EB090A52461A
:103B400006EB0901274815F0B8FE244BC3F800A086
:103B5000637803EB430204EB4202A2F80480D580B1
:103B600082F808B094F8342003EB430304EB4303DA
:103B70005A72637801335A4203F0070302F00702D6
:103B800058BF5342DBB2637062B63846FFF70AFF94
:103B9000002021E02A4631461248404415F08DFEAF
:103BA0000E4BC3F800901B68B3F5006FD0D10B4BE0
:103BB00000221A60CCE76FF0050070476FF0050037
:103BC0000AE06FF0050007E06FF0050004E04FF039
:103BD000FF3001E06FF00600BDE8F88F340A0020E6
:103BE000300A0020380A002008B5FFF77FFB38B103
:103BF00072B60023438083808383024A138062B6B7
:103C000008BD00BFA808002038B50446FFF76EFBCA
:103C100010B10546037803B938BD204603F0DAFD3C
:103C20002046FFF7E1FF2B7C022B0ED1EB7B022B12
:103C300005D0AA89A968204605F063F8ECE7AA89AF
:103C4000A968204604F098FFE6E7AB68698801227E
:103C500013FA81F1204604F009FFDDE770B582B068
:103C60000546FFF743FB38B10446037823B1037CD4
:103C7000022B03D0012B0DD002B070BDC37B022BF1
:103C8000FAD14369002BF7D08189806898470023D7
:103C90002370F1E7826843889BB2D05C8DF80700FF
:103CA00063889BB20133A28993FBF2F102FB1133CB
:103CB0009EB2A3889BB2B34219D0E37BFBB9626981
:103CC000EAB190476680A3686188012213FA81F106
:103CD000284604F0CBFE0028CED000232370A36931
:103CE000002BC9D06FF0070128469847C4E7A369A5
:103CF000002BE8D06FF00E0128469847E3E7012B30
:103D00000AD0032BDED16369002BDBD001220DF139
:103D1000070128469847D5E76269002AF1D0094A89
:103D20001388591C89B21180074AD054A37B98424A
:103D300001D07F29C6D9636903489847014B002207
:103D40001A80BFE7A8080020AC0800202DE9F8433E
:103D50000E46FFF7CBFA00286BD005460378002B00
:103D600067D0B0F81C901FFA89F94E4560D007D98A
:103D7000836803EB0908A6EB0907BFB200240BE038
:103D8000836803EB09088789A7EB0907BFB2F5E74A
:103D9000012B0DD00134A4B2A7421FD918F804009A
:103DA000EB7B002BF4D16A69002AF1D09047F1E750
:103DB0006B69002BEED0204A1388591C89B2118000
:103DC0001E4AD054AB7B834201D07F29E2D96B6974
:103DD0001A489847184B00221A80DBE74E4527D235
:103DE000AF68002403E0012B0CD00134A4B2B4422C
:103DF0001ED2385DEB7B002BF5D16A69002AF2D028
:103E00009047F2E76B69002BEFD00B4A1388591CDF
:103E100089B21180094AD054AB7B834201D07F29FB
:103E2000E3D96B6905489847034B00221A80DCE709
:103E3000AE83BDE8F88300BFA8080020AC080020CE
:103E400010B50446FFF752FA68B1D4F88C3013F07D
:103E5000080F09D083691BB16FF00F012046984706
:103E60002046FFF7D1FE10BDD4F88C3013F0070FB9
:103E7000F9D083691BB16FF00701204698472046AF
:103E8000FFF7C2FEEFE7002070470000012900D0D5
:103E9000704708B5024B1B680BB10020984708BD5E
:103EA000C812002070B504460D46064E0221304669
:103EB000FFF74AFC01232A4621463046FFF7EAFD78
:103EC000002070BD9C15002008B50248FFF762FC79
:103ED000002008BD9C15002008B5034B186003485E
:103EE000FFF72CFC002008BDC81200208D3E000802
:103EF00000B595B000210F9110911191129113917D
:103F0000382201A814F0ABFD15B05DF804FB0000E9
:103F100002680B4B9A4200D0704710B504464FF030
:103F2000B042136E23F4804313660321054801F069
:103F300077FCA06F01F010FA242001F029F910BDE0
:103F4000003801400004004808B50248FFF7DAFBDA
:103F500008BD00BF9C15002008B50368064A9342BF
:103F600007D0A2F57442934203D002F570529342F7
:103F700001D1FFF78FFC08BD0038014008B5036888
:103F8000064A934207D0A2F57442934203D002F549
:103F90007052934201D1FFF761FE08BD0038014025
:103FA00008B50368064A934207D0A2F574429342CB
:103FB00003D002F57052934201D1FFF74FFE08BDC6
:103FC0000038014008B50368064A934207D0A2F5BD
:103FD0007442934203D002F57052934201D1FFF72D
:103FE000B5FE08BD0038014008B50368064A934293
:103FF00007D0A2F57442934203D002F57052934267
:1040000001D1FFF71DFF08BD0038014008B5FEF7DC
:10401000E5FE00F0A9F908BD08B54FF0FF3010F03B
:104020008DFC08BD38B504460D461E2201460230FF
:1040300014F0FBFC258038BD002839D010B584B0C1
:10404000044603780BB904B010BD1A4B0022114688
:10405000022010F015FB237B94F9042094F914102E
:10406000039102920193A3680093134B002211461F
:10407000032010F005FB114B00221146032010F025
:10408000FFFAA378012B0CD1E37843B10C4B0093DA
:104090000C4B00221146032010F0F2FAD3E70A4B32
:1040A000F5E70A4B00221146032010F0E9FACAE7AF
:1040B000704700BFB4560208E85602081C570208B1
:1040C0009C6002082C570208AC56020840570208B0
:1040D00008B50021022010F0FDFB024810F06EFE32
:1040E00008BD00BFB017002050B310B5044690F9CA
:1040F0000130F3B9134B00221146022010F0C0FA30
:10410000A378012B0AD0104B00221146022010F098
:10411000B7FA0021022010F0DDFB10E00B4B00226B
:104120001146022010F0ACFA0021022010F0D2FB60
:1041300005E0074B00221146022010F0A1FA10BD45
:10414000704700BF50570208885702086857020896
:10415000A857020808B50021012010F0BBFB08BDDC
:1041600070B586B00C46054618B31F4B00221146A9
:10417000022010F085FA94F90C202B7894F90210A3
:1041800094F9030094F90460059604900391029356
:10419000164B53F822300193A3680093144B00226E
:1041A0001146032010F06CFA2B78032B04D006B0D4
:1041B00070BD0029D9D1FAE76B78012BF7D16B6874
:1041C0001B78012B07D0022B09D0002BEFD1002048
:1041D00004F06CFFEBE7012004F068FFE7E7022042
:1041E00004F064FFE3E700BFC4570208C861020897
:1041F000F857020870B584B001224FF480614A4834
:1042000001F08CFB40F6C410FEF7B8FE00250395C4
:1042100000F09EF90646454CA4FB0034C4F3C704E5
:10422000FDF74EFE0096424B01222946104610F043
:1042300027FA404B1B8800933F4B0122294610462A
:1042400010F01EFA3D4B1B7800933D4B012229468E
:10425000104610F015FA3B4B1B78C3B1394B0022C6
:104260001A70344B1A8838490A80384B022018706B
:104270005868120A02705A68098851705A682F49A2
:10428000097891705B68DC70002404251FE02E4BD8
:1042900019882F48FFF7C6FEE3E72D4B33F81410BB
:1042A0002A486A1C090A4668715533F814C04168E7
:1042B00001F802C0023533F8143001930094254B05
:1042C00000221146104610F0DBF90134E4B20F2C45
:1042D000E3D978220021204814F0C1FB00224FF4DA
:1042E0008061114801F01AFB18484570002303AAA9
:1042F000194604F087FF18B1039B43B904B070BDA1
:10430000164B01220021104610F0BAF9F6E7144AC4
:10431000A2FB03239B090093124B012200211046AC
:1043200010F0AEF9EAE700BF00040048CDCCCCCCD9
:1043300040580208181800205C580208D8070020CE
:104340007C58020890020020C81700204402002078
:10435000CC1700209C5802081C180020B4580208F2
:10436000D34D6210C458020870B584B00024029482
:10437000012501950095214B22462146022010F08F
:104380007FF9029403230193022600961C4B2246D8
:104390002146304610F074F9029401950095194BAE
:1043A00022462146304610F06BF9174A214628462E
:1043B00010F04CFB154A2146304610F047FB00F048
:1043C0002FF8134805F0D8F8124804F07DFD284670
:1043D00004F0CEFE104D0094104B22464FF0FF31FA
:1043E000284610F033FC4EF66021284610F02CFDD4
:1043F000284610F0E3FC04B070BD00BFE45802088A
:10440000045902082459020879900008F54100086F
:104410005C0200204C020020B0170020D1400008B0
:10442000074B00221A605A609A60DA6020225A60B4
:10443000A0225A604FF4D0725A6003221A6070476B
:10444000EC17002000487047EC17002008B500F07A
:10445000AFF808BD08B500F0DFF808BD08B500F0FA
:1044600017F908BD08B500F015F908BD08B500F04A
:1044700013F908BD0D48854600F010F90C480D49A8
:104480000D4A002302E0D458C4500433C4188C42AF
:10449000F9D30A4A0A4C002301E013600432A24215
:1044A000FBD315F0D9F9FEF79FFAFEE700000120D3
:1044B0000000002050050020A06F020840070020E7
:1044C00070300020FEE7000008B5034810F01CFC27
:1044D000024B01221A7008BDFC170020141800209E
:1044E00010B582B0074C00220092074B4FF0FF310D
:1044F000204610F0ABFB47F23051204610F0A4FCF0
:1045000002B010BDFC170020C9440008012800D0EB
:10451000704708B5064B01220021104610F0B0F894
:10452000002201214FF0904001F0F8F908BD00BFD2
:1045300080590208012800D0704708B501221146B1
:104540004FF0904001F0EAF908BD000000000000C3
:1045500010B50120FFF7DAFF42F21070FEF70EFDF2
:104560001148FEF74FF904460120FFF7E3FF20460C
:10457000FBF7C0FF0AA3D3E90023FCF725F80246A6
:104580000B46FBF76BFEFCF717FB4FF06651FCF791
:1045900071FC0649FCF76EFCFCF76EFE80B210BDA4
:1045A0006666666666660A400800000C0000C8423F
:1045B00070B586B000240194029403940494059489
:1045C0004FF0B043DA6C42F00102DA64DB6C03F0C6
:1045D00001030093009B10250195012302930323FF
:1045E000049301A94FF0904001F048F8202601966D
:1045F00001A94FF0904001F041F8224631464FF0BA
:10460000904001F08BF9224629464FF0904001F08E
:1046100085F9204606B070BD08B503280FD8DFE83D
:1046200000F002101D2A002210214FF0904001F0EE
:1046300075F9002220214FF0904001F06FF9002021
:1046400008BD012210214FF0904001F067F90022CF
:1046500020214FF0904001F061F9F0E70122102194
:104660004FF0904001F05AF9012220214FF0904084
:1046700001F054F9E3E7002210214FF0904001F0DF
:104680004DF9012220214FF0904001F047F9D6E783
:1046900002207047012070470120704770470000DA
:1046A00010B5032000F04EFD01F0C8FA064B18606B
:1046B0000F20FEF75DFC10B10124204610BD04461A
:1046C000FEF73CFAF9E700BF94020020034B1B7889
:1046D000034A11680B441360704700BF9802002022
:1046E000941800204FF0E022136923F002031361B5
:1046F00070474FF0E022136943F0020313617047E3
:10470000014BD3F8900570470070FF1F014BD3F8A1
:10471000940570470070FF1F014BD3F89805704750
:104720000070FF1F024A536823F001035360704773
:10473000002004E0024A536823F0020353607047EC
:10474000002004E0024A536823F0040353607047DA
:10475000002004E070B582B000230193002800F02F
:1047600028810446836DBBB12268936813F0805F93
:104770001FD1936823F0104323F0170343F08053B5
:1047800093608D4B1B689B098C4AA2FB03239B09FA
:1047900001335B00019309E0FEF708F80023E365AD
:1047A00084F85430E0E7019B013B0193019B002B0F
:1047B000F9D12268936813F0805F4BD1A36D43F069
:1047C0001003A365E36D43F00103E36501209368E3
:1047D00013F0040300D00123A16D11F0100F40F07D
:1047E000E180002B40F0DE80A16D21F4817141F069
:1047F0000201A165916811F0010F38D1D16821F053
:104800001801A5682943D160626802F04042E16C5A
:1048100042EA010C94F83C1001291DD021680D6971
:10482000674A2A4042EA0C020A616268B2F1404FCC
:104830001ED0B2F1804F1BD0B2F1004F18D0614DA5
:10484000D5F8081721F4701102F470120A43C5F864
:1048500008270DE00020BAE7216C0A43616C0A4387
:10486000A16C0A434CEA020242F0010CD6E79C46D6
:10487000217E627ED20342EA8132A57E42EA45323F
:10488000216B09B14FF480510A43E1680A43216961
:10489000002949DB4FF400110A4394F82C1042EA36
:1048A000410294F82010012941D0616A21B101F43C
:1048B000E071A56A29430A432568E96821F4FE31BD
:1048C00021F4F3711143E96025682E693E493140B6
:1048D00041EA0C0129612668616B756925F0070CB6
:1048E00041EA0C0171612568A66B696921F07001CC
:1048F00041EA06116961216931BB21688B6A63F065
:104900000F038B622368D968304B0B40934240D031
:10491000A36D23F0120343F01003A365E36D43F08E
:104920000103E365012042E021F00041B4E715B93D
:1049300042F48032B9E7A16D41F02001A165E16D3B
:1049400041F00101E165B0E7B1F5001FDAD1072BB5
:1049500008D8216E9D00E94001F00F010F2901D018
:104960000133F4E7012B0ED02568AB6AE369013B04
:104970009B0003F01C036FF00F0101FA03F3216E9B
:104980000B43AB62BEE721688B6A63F00F038B6257
:10499000B8E70023E365A36D23F0030343F00103AD
:1049A000A36504E0A36D43F01003A365012002B0EA
:1049B00070BD0120FBE700BF94020020632D3E057F
:1049C00002FCFF1F0020014002FCFFDFE7FF3F83E6
:1049D000F8B504460D464669082E05D00368DB6825
:1049E00013F0010F1ED10426FEF7C4FA0746236810
:1049F0001A6832421CD1B5F1FF3FF8D0FEF7BAFA7F
:104A0000C31BAB4201D8002DF1D123681B68334290
:104A1000EDD1A36D43F00403A365002384F8543063
:104A2000032028E0836D43F020038365012022E00A
:104A3000A26D42F40072A265DA6812F4406F15D1DB
:104A4000A27E9AB91A6812F0080F0FD09A6812F075
:104A5000040F11D15A6822F00C025A60A36D23F49E
:104A6000807323F0010343F00103A365207E60B946
:104A700023680C221A60F8BDA36D43F02003A365E0
:104A8000E36D43F00103E365F0E70020F3E703681B
:104A9000186C704770B483B000220192046990F8DA
:104AA0005420012A00F003810346012280F854209B
:104AB0000268906810F0040F0AD09A6D42F020024C
:104AC0009A650120002283F8542003B070BC70471F
:104AD0004868022800F09C80B4F1004F27D0754D43
:104AE000AC4224D01C6E00F01F000F25854024EA44
:104AF00005050C68C4F31106002E31D1C4F384649B
:104B000084402C431C664C68A0080130DD69A84233
:104B100013D80D68906A04F01F040F26A64020EAFF
:104B20000600C5F38365A5402843906205E00C6844
:104B3000906AC4F31104204390621C680D688A686F
:104B4000606920EA052002EA052222F07C4222F078
:104B5000FF02024362610A68002A09DB0020B1E714
:104B600094FAA4F414B1B4FA84F4C9E72024C7E792
:104B70005149D1F8080700F0E071504CA24207D02B
:104B80004F4CA24226D04F4CA24232D0002099E78F
:104B900010F4000FF4D141F400014748D0F8082781
:104BA00022F0E0721143C0F80817474A12689209D0
:104BB0004649A1FB02129209013202EB4202920025
:104BC000019202E0019A013A0192019A002AF9D178
:104BD000002077E710F0807FD5D141F08071364812
:104BE000D0F8082722F0E0721143C0F8081700201F
:104BF00068E710F4800F58D141F480022E48D0F8B5
:104C0000081721F0E0710A43C0F80827002059E78F
:104C1000B4F1004F02D02748844206D10C68906A54
:104C2000C4F3110420EA040090620A68002A01DB40
:104C3000002047E72049D1F808172048824207D0D2
:104C40001F48824213D01F4882421FD0002039E7FC
:104C500001F0A07100F1104000F58830D0F808276D
:104C600022F0E0721143C0F8081700202AE701F48F
:104C7000400200F1084000F56040D0F8081721F02C
:104C8000E0710A43C0F8082700201BE701F0C0725A
:104C900000F10C4000F58030D0F8081721F0E071E9
:104CA0000A43C0F8082700200CE700200AE702208A
:104CB0000BE700BF0400008000200140001000B09E
:104CC000004000B8002000B494020020632D3E058F
:104CD00038B503689A6812F0040F2AD004469A681F
:104CE00012F0020F07D19A6822F0004222F0170258
:104CF00042F010029A60FEF73DF9054623689B6872
:104D000013F0040F13D0FEF735F9431B022BF5D92E
:104D100023689B6813F0040FF0D0A36D43F01003D9
:104D2000A365E36D43F00103E365012002E0002089
:104D300000E0002038BD000030B583B000230193AF
:104D400003689A6812F0010F5BD1044699682E4AF5
:104D5000114217D19A6822F0004222F0170242F065
:104D600001029A60294BD3F8083713F4000F19D0C9
:104D7000274B1B689B09274AA2FB03239B0901338E
:104D800001930CE0836D43F010038365C36D43F022
:104D90000103C365012035E0019B013B0193019BA9
:104DA000002BF9D1637E012B01D100202AE0FEF710
:104DB000E1F8054623681A6812F0010F1FD19A68BE
:104DC00012F0010F07D19A6822F0004222F0170278
:104DD00042F001029A60FEF7CDF8401B0228E9D9A3
:104DE00023681B6813F0010FE4D1A36D43F0100397
:104DF000A365E36D43F00103E365012002E00020B9
:104E000000E0002003B030BD17000080002001400A
:104E100094020020632D3E0503689B6813F0040F85
:104E200028D110B5044690F85430012B24D001232A
:104E300080F85430FFF780FFC0B9A36D23F470638E
:104E400023F0010343F48073A3650023E365226824
:104E50001C21116084F854302268936823F00043C9
:104E600023F0170343F00403936010BD002384F87C
:104E70005430FAE7022070470220F6E738B50446BE
:104E80000268936813F0020300D00123916811F0C7
:104E9000010F39D0002B39D1936803F00503012BA2
:104EA00009D0A36D43F01003A365E36D43F0010344
:104EB000E365012029E0936823F0004323F0170302
:104EC00043F002039360236803221A60FEF752F84E
:104ED000054623689B6813F0010F13D0FEF74AF8CC
:104EE000401B0228F5D923689B6813F0010FF0D00E
:104EF000A36D43F01003A365E36D43F00103E36585
:104F0000012002E0002000E0002038BD0020FCE786
:104F100070B500284CD00446836D43F002038365CE
:104F2000FFF7D6FE0646002833D02268536823F4E4
:104F3000677323F003035360236840F29F321A60C3
:104F40002268D1681B4B0B40D3602268136923F0A1
:104F5000404313612268536923F0070353612268B9
:104F6000136A03F0F023136223689A6A00259D6296
:104F7000114AD2F8083723F0FE73C2F808372046EA
:104F8000FDF72AFC2566E565A56584F85450304692
:104F900070BD2046FFF772FF064608B90123A365DE
:104FA0002268936823F0104323F017039360BCE753
:104FB0000126ECE700023E830020014090F85430C7
:104FC000012B19D010B50446012380F85430FFF7A7
:104FD0007FFE18B1002384F8543010BD2046FFF73F
:104FE0004DFF0028F6D1A36D23F4807323F0010355
:104FF00043F00103A365EDE70220704710B582B0CE
:105000000023019390F85430012B45D0044601232E
:1050100080F85430FFF732FF23689A6812F0010FCE
:1050200008D0A36D43F01003A365002384F8543027
:1050300002B010BDA26D22F4817242F00202A2659C
:10504000D96801F00301DA6822F00302DA6022680D
:10505000936843F00043936023689A68002A09DB51
:10506000DA680A43DA60A36D23F0030343F0010317
:10507000A365DAE7019B01330193019BB3F52E3F52
:10508000EAD3A36D23F0120343F01003A3650023BA
:1050900084F854300120CBE70220C9E7002807DB61
:1050A00000F01F02400901239340024A42F82030D9
:1050B000704700BF00E100E000280CDB00F01F0299
:1050C0004009012393402030034A42F82030BFF3C7
:1050D0004F8FBFF36F8F704700E100E0002808DBBF
:1050E0000901C9B200F1604000F5614080F8001389
:1050F000704700F00F000901C9B2014B1954704705
:1051000014ED00E000B500F00700C0F1070CBCF1A1
:10511000040F28BF4FF0040C031D062B0FD9C31E2C
:105120004FF0FF3E0EFA0CF021EA000199400EFA12
:1051300003FE22EA0E0241EA02005DF804FB0023AE
:10514000EEE70000074AD36823F4E0631B041B0C5E
:10515000000200F4E060034343F0BF6343F4003314
:10516000D360704700ED00E010B50446054BD868E9
:10517000C0F30220FFF7C6FF01462046FFF7AEFF4F
:1051800010BD00BF00ED00E008B5FFF787FF08BDC8
:1051900008B5FFF791FF08BD10B4C46CD0F850C03B
:1051A000C4F804C0446D24B1846DD0F85CC0C4F868
:1051B00004C0446C04F01C0C012404FA0CF4D0F874
:1051C00040C0CCF80440046863608368102B05D0AD
:1051D000036899600368DA6010BC704703689A60DE
:1051E0000368D960F8E700000368144A934216D8B0
:1051F000426C22F0030202F1804202F50232826424
:10520000DBB2083B0E4AA2FB03231B090D4AC26412
:1052100003F01F03012202FA03F303657047426C97
:1052200022F00301084A0A448264DBB2083B044AC4
:10523000A2FB03231B090733E8E700BF0704024072
:10524000CDCCCCCC800802401C080240436803F05F
:105250007F03074A1A4492004265064A8265013B71
:1052600003F00303012202FA03F3C365704700BF92
:105270003F8200104009024000285ED010B504466D
:1052800003682F4A934240D82E4A1A442E49A1FB64
:1052900002121209920042642C4A0264022284F82B
:1052A00025201A686FF30E121A6021680A68A36835
:1052B000E06803432069034360690343A069034333
:1052C000E0690343206A034313430B602046FFF762
:1052D0008BFFA368B3F5804F22D06368A26C03F004
:1052E0007F031360E36C226D5A606368013B032BFC
:1052F00019D900236365A365E3650020E0630123FA
:1053000084F8253084F8240010BD114A1A440E494F
:10531000A1FB02121209920042640E4A0264BDE728
:1053200000236360D9E72046FFF790FF636D0022FA
:105330001A60A36DE26D5A60DFE70120704700BF7D
:1053400007040240F8FFFDBFCDCCCCCC00000240EA
:10535000F8FBFDBF0004024000284BD038B50446DE
:105360000268136823F0010313600268224B9A421B
:105370002CD8224B13442249A1FB03131B099B0089
:105380004364204B036400251560636C03F01C022A
:10539000216C012393404B602046FFF725FFA36C4F
:1053A0001D60E36C226D5A606368013B032B18D9C2
:1053B00000206065A065E065E06220636063A06333
:1053C000E06384F8250084F8240038BD0E4B1344B4
:1053D0000B49A1FB03131B099B0043640B4B0364A4
:1053E000D1E72046FFF732FF636D1D60A36DE26DCC
:1053F0005A60DDE70120704707040240F8FFFDBF57
:10540000CDCCCCCC00000240F8FBFDBF0004024034
:1054100038B5044690F82400012843D0012084F8D0
:10542000240094F82500C0B2012806D08023E3634D
:10543000002384F82430012038BD022084F82500A0
:105440000020E0632568286820F0010028602046DD
:10545000FFF7A2FE236BD3B12268136843F00E035B
:105460001360A36C1A6812F4803F03D01A6842F4E8
:1054700080721A60636D1BB11A6842F480721A6000
:105480002268136843F0010313600020D4E7226808
:10549000136823F0040313602268136843F00A03BF
:1054A0001360DEE70220C7E70346002834D090F8F7
:1054B0002520D2B2022A06D00422C263002280F83C
:1054C00024200120704701680A6822F00E020A6059
:1054D000816C0A6822F480720A6001680A6822F00E
:1054E00001020A60426C02F01C01006C01228A4039
:1054F0004260DA6C196D51605A6D32B1116821F455
:10550000807111609A6DD96D5160012283F8252058
:10551000002083F8240070470120704708B590F8F8
:105520002530DBB2022B03D00423C363012008BD66
:105530000268136823F00E0313600268136823F0F7
:1055400001031360826C136823F480731360436C4F
:1055500003F01C02016C012393404B60C36C026D8D
:105560005A60436D33B11A6822F480721A60836DF9
:10557000C26D5A60012380F82530002380F8243062
:10558000836B13B198470020D1E70020CFE70000DC
:1055900038B5036C196804682568436C03F01C0374
:1055A00004229A400A4215D015F0040F12D0236845
:1055B00013F0200F03D1236823F004032360436C0E
:1055C00003F01C02016C042393404B60036B03B196
:1055D000984738BD02229A400A4228D015F0020F9F
:1055E00025D0236813F0200F06D1236823F00A0387
:1055F0002360012380F8253002681C4B9A420ED9A3
:10560000436C03F01C0202239340194A53600023A9
:1056100080F82430C36A002BDBD09847D9E7436C6D
:1056200003F01C0202239340124A5360EFE7082262
:1056300002FA03F30B42CCD015F0080FC9D023684F
:1056400023F00E032360436C03F01C03016C012262
:1056500002FA03F34B60C26380F82520002380F830
:105660002430436B002BB4D09847B2E7800002404F
:105670000004024000000240C06B704770B5002378
:1056800069E085685E000324B44025EA0405CC681F
:10569000B4402C438460456825EA0C054C68C4F38B
:1056A00000149C402C43446066E0DD08083550F847
:1056B000254003F0070C4FEA8C0C4FF00F0E0EFA4A
:1056C0000CFE24EA0E0E0C6904FA0CF444EA0E04F3
:1056D00040F8254067E0022400E0002404FA0EF4BC
:1056E0002C430CF1020C4B4D45F82C404A4CD4F89D
:1056F0008050D44325EA0206D1F804C01CF4803F50
:1057000001D042EA0506444DC5F88060D5F88450C2
:1057100004EA0506D1F804C01CF4003F01D042EAB7
:1057200005063D4DC5F884602D6804EA0506D1F8EC
:1057300004C01CF4801F01D042EA0506364D2E60DD
:105740006D682C404E6816F4001F01D042EA050433
:10575000314A546001330A6832FA03F458D04FF0EA
:10576000010C0CFA03FC1CEA0202F3D04C6804F0B2
:105770000304013C012C84D94C6804F00304032C7D
:105780000CD0C4685D004FF0030C0CFA05FC24EA51
:105790000C0C8C68AC4044EA0C04C4604C6804F007
:1057A0000304022C81D004684FEA430E4FF0030C2F
:1057B0000CFA0EFC24EA0C0C4C6804F0030404FA06
:1057C0000EF444EA0C0404604C6814F4403FC1D069
:1057D0004FEA930C0CF102050E4C54F8255003F0DF
:1057E000030E4FEA8E0E072404FA0EF425EA040590
:1057F000B0F1904F3FF471AF084CA04206D004F5D1
:105800008064A0423FF467AF072467E7012465E79F
:1058100070BD00BF000001400008005800040048AF
:10582000002331FA03F271D0F0B52EE0022500E03A
:10583000002505FA0CF5A54249D004685D004FF03B
:10584000030C0CFA05FC44EA0C0404604FEAD30E86
:105850000EF1080E50F82E4003F00706B6000F2593
:10586000B54024EA050440F82E40846824EA0C047C
:105870008460446824EA02024260C26822EA0C02A0
:10588000C260013331FA03F23FD001229A4012EA9A
:105890000107F6D09E08B51C1D4C54F8254003F0B6
:1058A000030C4FEA8C0C4FF0070E0EFA0CFE0EEABA
:1058B0000404B0F1904FBBD0164DA84205D005F5B9
:1058C0008065A842B2D00725B3E70125B1E7124CA5
:1058D000D4F8805025EA0705C4F88050D4F88450E5
:1058E00025EA0705C4F88450256825EA07052560E0
:1058F000656825EA07056560054D023655F82640BE
:1059000024EA0E0445F8264097E7F0BD704700BF33
:105910000000014000040048000800580AB18161FD
:105920007047816270470000024A136843F4807335
:10593000136070470004005810B50C46A0B90F4B17
:105940005B6913F4007F0AD10D4A136923F0040345
:105950001361012C10D040BF20BF20BF10BD00F04C
:1059600021F80028F0D0F9E7044B5B6913F4007FBD
:10597000EAD100F00FF8E7E730BFEFE70004005886
:1059800000ED00E0024B186800F4C060704700BFF3
:1059900000040058024A136843F4804313607047C0
:1059A000000400580F4A136823F4804313600E4B21
:1059B0001B68322202FB03F30C4AA2FB03239B0C5D
:1059C00000E0013B074A526912F4007F01D0002B2E
:1059D000F7D1044B5B6913F4007F01D100207047BD
:1059E00003207047000400589402002083DE1B430C
:1059F0000C4A136823F0070343F0020313600A4ABA
:105A0000136943F004031361012808D040BF20BF8D
:105A100020BF054A136923F004031361704730BFA8
:105A2000F7E700BF0004005800ED00E030B589B092
:105A300004468C462A4B93E803000690ADF81C10F0
:105A400003F1080292E803000490ADF8141001ADD0
:105A5000103393E8070085E80700BCF5007F07D006
:105A6000002314E008AA02EB830353F81C5C1EE039
:105A70000023022B08D808AA02EB430232F8082CB4
:105A8000A242EFD20133F4E7002510E00133022BEC
:105A90000CD808AA02EB430232F8102CA242F5D32C
:105AA00008AA02EB830353F81C5C00E000250D4AB2
:105AB000136823F007032B431360FDF75BFA0446DA
:105AC000084B1B6803F00703AB4206D0FDF752FA00
:105AD000001B0228F4D9032000E0002009B030BDEB
